:020000040000FA
:10000000000064000C280000000000000000000058
:100010000928831285010B28CC2083162F308100FC
:1000200083163030950083120730990083169F01A4
:1000300083163830850083128501FF30AA002720FF
:10004000382022286400831263207B202228831218
:100050007D304C20AF002F1C2E283028AB013428D7
:100060007E304C202B0834287F304C20AC00080018
:1000700083122B08AD00AD0D2D0D7C39AD002D0880
:10008000003E4C20A2002D08013E4C20A3002D086C
:10009000023E4C20A400080083169B001C141A0882
:1000A000831208008312850183169B002E089A0094
:1000B0001C158B1355309D00AA309D009C149C1874
:1000C0005F28831208008312AA0D051A2A14051E40
:1000D0002A102A08033A03196E280800AB0A2B08D5
:1000E0002C02031CAB0138202F1C08002B08AE008B
:1000F0007E305220080083121330A5002208A6008B
:100100002308A7002408A800A9012608031991289C
:10011000A60B8B288F28A914000000009828A9108E
:10012000982800000000000000000000000098284F
:1001300027080319A428A70B9E28A2282915000028
:100140000000AB282911AB280000000000000000CF
:1001500000000000AB2828080319B728A80BB12815
:10016000B528291400000000BE282910BE28000070
:1001700000000000000000000000BE2829088500E3
:10018000A50B842808008312A0002008031908008A
:100190000000A00BC82808008312FF30A100FF3028
:0801A000C320A10BCF280800C9
:02400E00EC3F85
:1042000014000000000000000F000600080000007D
:10421000140009000000000014001000000000005D
:104220000000140000000000000000001400000066
:104230000A0000000A0000000F000F000800000044
:0642FA00010000000700B6
:00000001FF
